{
  "contractName": "mintNFT721",
  "abi": [
    {
      "inputs": [],
      "stateMutability": "nonpayable",
      "type": "constructor"
    },
    {
      "anonymous": false,
      "inputs": [
        {
          "indexed": true,
          "internalType": "address",
          "name": "owner",
          "type": "address"
        },
        {
          "indexed": true,
          "internalType": "address",
          "name": "approved",
          "type": "address"
        },
        {
          "indexed": true,
          "internalType": "uint256",
          "name": "tokenId",
          "type": "uint256"
        }
      ],
      "name": "Approval",
      "type": "event"
    },
    {
      "anonymous": false,
      "inputs": [
        {
          "indexed": true,
          "internalType": "address",
          "name": "owner",
          "type": "address"
        },
        {
          "indexed": true,
          "internalType": "address",
          "name": "operator",
          "type": "address"
        },
        {
          "indexed": false,
          "internalType": "bool",
          "name": "approved",
          "type": "bool"
        }
      ],
      "name": "ApprovalForAll",
      "type": "event"
    },
    {
      "anonymous": false,
      "inputs": [
        {
          "indexed": true,
          "internalType": "address",
          "name": "previousOwner",
          "type": "address"
        },
        {
          "indexed": true,
          "internalType": "address",
          "name": "newOwner",
          "type": "address"
        }
      ],
      "name": "OwnershipTransferred",
      "type": "event"
    },
    {
      "anonymous": false,
      "inputs": [
        {
          "indexed": true,
          "internalType": "address",
          "name": "from",
          "type": "address"
        },
        {
          "indexed": true,
          "internalType": "address",
          "name": "to",
          "type": "address"
        },
        {
          "indexed": true,
          "internalType": "uint256",
          "name": "tokenId",
          "type": "uint256"
        }
      ],
      "name": "Transfer",
      "type": "event"
    },
    {
      "inputs": [
        {
          "internalType": "address",
          "name": "to",
          "type": "address"
        },
        {
          "internalType": "uint256",
          "name": "tokenId",
          "type": "uint256"
        }
      ],
      "name": "approve",
      "outputs": [],
      "stateMutability": "nonpayable",
      "type": "function"
    },
    {
      "inputs": [
        {
          "internalType": "address",
          "name": "owner",
          "type": "address"
        }
      ],
      "name": "balanceOf",
      "outputs": [
        {
          "internalType": "uint256",
          "name": "",
          "type": "uint256"
        }
      ],
      "stateMutability": "view",
      "type": "function"
    },
    {
      "inputs": [
        {
          "internalType": "uint256",
          "name": "tokenId",
          "type": "uint256"
        }
      ],
      "name": "getApproved",
      "outputs": [
        {
          "internalType": "address",
          "name": "",
          "type": "address"
        }
      ],
      "stateMutability": "view",
      "type": "function"
    },
    {
      "inputs": [
        {
          "internalType": "address",
          "name": "owner",
          "type": "address"
        },
        {
          "internalType": "address",
          "name": "operator",
          "type": "address"
        }
      ],
      "name": "isApprovedForAll",
      "outputs": [
        {
          "internalType": "bool",
          "name": "",
          "type": "bool"
        }
      ],
      "stateMutability": "view",
      "type": "function"
    },
    {
      "inputs": [],
      "name": "name",
      "outputs": [
        {
          "internalType": "string",
          "name": "",
          "type": "string"
        }
      ],
      "stateMutability": "view",
      "type": "function"
    },
    {
      "inputs": [],
      "name": "owner",
      "outputs": [
        {
          "internalType": "address",
          "name": "",
          "type": "address"
        }
      ],
      "stateMutability": "view",
      "type": "function"
    },
    {
      "inputs": [
        {
          "internalType": "uint256",
          "name": "tokenId",
          "type": "uint256"
        }
      ],
      "name": "ownerOf",
      "outputs": [
        {
          "internalType": "address",
          "name": "",
          "type": "address"
        }
      ],
      "stateMutability": "view",
      "type": "function"
    },
    {
      "inputs": [],
      "name": "renounceOwnership",
      "outputs": [],
      "stateMutability": "nonpayable",
      "type": "function"
    },
    {
      "inputs": [
        {
          "internalType": "address",
          "name": "from",
          "type": "address"
        },
        {
          "internalType": "address",
          "name": "to",
          "type": "address"
        },
        {
          "internalType": "uint256",
          "name": "tokenId",
          "type": "uint256"
        }
      ],
      "name": "safeTransferFrom",
      "outputs": [],
      "stateMutability": "nonpayable",
      "type": "function"
    },
    {
      "inputs": [
        {
          "internalType": "address",
          "name": "from",
          "type": "address"
        },
        {
          "internalType": "address",
          "name": "to",
          "type": "address"
        },
        {
          "internalType": "uint256",
          "name": "tokenId",
          "type": "uint256"
        },
        {
          "internalType": "bytes",
          "name": "_data",
          "type": "bytes"
        }
      ],
      "name": "safeTransferFrom",
      "outputs": [],
      "stateMutability": "nonpayable",
      "type": "function"
    },
    {
      "inputs": [
        {
          "internalType": "address",
          "name": "operator",
          "type": "address"
        },
        {
          "internalType": "bool",
          "name": "approved",
          "type": "bool"
        }
      ],
      "name": "setApprovalForAll",
      "outputs": [],
      "stateMutability": "nonpayable",
      "type": "function"
    },
    {
      "inputs": [
        {
          "internalType": "bytes4",
          "name": "interfaceId",
          "type": "bytes4"
        }
      ],
      "name": "supportsInterface",
      "outputs": [
        {
          "internalType": "bool",
          "name": "",
          "type": "bool"
        }
      ],
      "stateMutability": "view",
      "type": "function"
    },
    {
      "inputs": [],
      "name": "symbol",
      "outputs": [
        {
          "internalType": "string",
          "name": "",
          "type": "string"
        }
      ],
      "stateMutability": "view",
      "type": "function"
    },
    {
      "inputs": [
        {
          "internalType": "uint256",
          "name": "tokenId",
          "type": "uint256"
        }
      ],
      "name": "tokenURI",
      "outputs": [
        {
          "internalType": "string",
          "name": "",
          "type": "string"
        }
      ],
      "stateMutability": "view",
      "type": "function"
    },
    {
      "inputs": [
        {
          "internalType": "address",
          "name": "from",
          "type": "address"
        },
        {
          "internalType": "address",
          "name": "to",
          "type": "address"
        },
        {
          "internalType": "uint256",
          "name": "tokenId",
          "type": "uint256"
        }
      ],
      "name": "transferFrom",
      "outputs": [],
      "stateMutability": "nonpayable",
      "type": "function"
    },
    {
      "inputs": [
        {
          "internalType": "address",
          "name": "newOwner",
          "type": "address"
        }
      ],
      "name": "transferOwnership",
      "outputs": [],
      "stateMutability": "nonpayable",
      "type": "function"
    },
    {
      "inputs": [
        {
          "internalType": "string",
          "name": "tokenURI",
          "type": "string"
        }
      ],
      "name": "mintNFT",
      "outputs": [
        {
          "internalType": "uint256",
          "name": "",
          "type": "uint256"
        }
      ],
      "stateMutability": "nonpayable",
      "type": "function"
    }
  ],
  "bytecode": "0x60806040523480156200001157600080fd5b506040518060400160405280600881526020017f4d794e46543732310000000000000000000000000000000000000000000000008152506040518060400160405280600681526020017f4e46543732310000000000000000000000000000000000000000000000000000815250816000908051906020019062000096929190620001a6565b508060019080519060200190620000af929190620001a6565b505050620000d2620000c6620000d860201b60201c565b620000e060201b60201c565b620002bb565b600033905090565b6000600760009054906101000a900473ffffffffffffffffffffffffffffffffffffffff16905081600760006101000a81548173ffffffffffffffffffffffffffffffffffffffff021916908373ffffffffffffffffffffffffffffffffffffffff1602179055508173ffffffffffffffffffffffffffffffffffffffff168173ffffffffffffffffffffffffffffffffffffffff167f8be0079c531659141344cd1fd0a4f28419497f9722a3daafe3b4186f6b6457e060405160405180910390a35050565b828054620001b49062000285565b90600052602060002090601f016020900481019282620001d8576000855562000224565b82601f10620001f357805160ff191683800117855562000224565b8280016001018555821562000224579182015b828111156200022357825182559160200191906001019062000206565b5b50905062000233919062000237565b5090565b5b808211156200025257600081600090555060010162000238565b5090565b7f4e487b7100000000000000000000000000000000000000000000000000000000600052602260045260246000fd5b600060028204905060018216806200029e57607f821691505b60208210811415620002b557620002b462000256565b5b50919050565b612ffd80620002cb6000396000f3fe608060405234801561001057600080fd5b506004361061010b5760003560e01c8063715018a6116100a2578063b88d4fde11610071578063b88d4fde146102a4578063c87b56dd146102c0578063e985e9c5146102f0578063f2fde38b14610320578063fb37e8831461033c5761010b565b8063715018a6146102425780638da5cb5b1461024c57806395d89b411461026a578063a22cb465146102885761010b565b806323b872dd116100de57806323b872dd146101aa57806342842e0e146101c65780636352211e146101e257806370a08231146102125761010b565b806301ffc9a71461011057806306fdde0314610140578063081812fc1461015e578063095ea7b31461018e575b600080fd5b61012a60048036038101906101259190611c74565b61036c565b6040516101379190611cbc565b60405180910390f35b61014861044e565b6040516101559190611d70565b60405180910390f35b61017860048036038101906101739190611dc8565b6104e0565b6040516101859190611e36565b60405180910390f35b6101a860048036038101906101a39190611e7d565b610565565b005b6101c460048036038101906101bf9190611ebd565b61067d565b005b6101e060048036038101906101db9190611ebd565b6106dd565b005b6101fc60048036038101906101f79190611dc8565b6106fd565b6040516102099190611e36565b60405180910390f35b61022c60048036038101906102279190611f10565b6107af565b6040516102399190611f4c565b60405180910390f35b61024a610867565b005b6102546108ef565b6040516102619190611e36565b60405180910390f35b610272610919565b60405161027f9190611d70565b60405180910390f35b6102a2600480360381019061029d9190611f93565b6109ab565b005b6102be60048036038101906102b99190612108565b6109c1565b005b6102da60048036038101906102d59190611dc8565b610a23565b6040516102e79190611d70565b60405180910390f35b61030a6004803603810190610305919061218b565b610b75565b6040516103179190611cbc565b60405180910390f35b61033a60048036038101906103359190611f10565b610c09565b005b6103566004803603810190610351919061226c565b610d01565b6040516103639190611f4c565b60405180910390f35b60007f80ac58cd000000000000000000000000000000000000000000000000000000007bffffffffffffffffffffffffffffffffffffffffffffffffffffffff1916827bffffffffffffffffffffffffffffffffffffffffffffffffffffffff1916148061043757507f5b5e139f000000000000000000000000000000000000000000000000000000007bffffffffffffffffffffffffffffffffffffffffffffffffffffffff1916827bffffffffffffffffffffffffffffffffffffffffffffffffffffffff1916145b80610447575061044682610db4565b5b9050919050565b60606000805461045d906122e4565b80601f0160208091040260200160405190810160405280929190818152602001828054610489906122e4565b80156104d65780601f106104ab576101008083540402835291602001916104d6565b820191906000526020600020905b8154815290600101906020018083116104b957829003601f168201915b5050505050905090565b60006104eb82610e1e565b61052a576040517f08c379a000000000000000000000000000000000000000000000000000000000815260040161052190612388565b60405180910390fd5b6004600083815260200190815260200160002060009054906101000a900473ffffffffffffffffffffffffffffffffffffffff169050919050565b6000610570826106fd565b90508073ffffffffffffffffffffffffffffffffffffffff168373ffffffffffffffffffffffffffffffffffffffff1614156105e1576040517f08c379a00000000000000000000000000000000000000000000000000000000081526004016105d89061241a565b60405180910390fd5b8073ffffffffffffffffffffffffffffffffffffffff16610600610e8a565b73ffffffffffffffffffffffffffffffffffffffff16148061062f575061062e81610629610e8a565b610b75565b5b61066e576040517f08c379a0000000000000000000000000000000000000000000000000000000008152600401610665906124ac565b60405180910390fd5b6106788383610e92565b505050565b61068e610688610e8a565b82610f4b565b6106cd576040517f08c379a00000000000000000000000000000000000000000000000000000000081526004016106c49061253e565b60405180910390fd5b6106d8838383611029565b505050565b6106f8838383604051806020016040528060008152506109c1565b505050565b6000806002600084815260200190815260200160002060009054906101000a900473ffffffffffffffffffffffffffffffffffffffff169050600073ffffffffffffffffffffffffffffffffffffffff168173ffffffffffffffffffffffffffffffffffffffff1614156107a6576040517f08c379a000000000000000000000000000000000000000000000000000000000815260040161079d906125d0565b60405180910390fd5b80915050919050565b60008073ffffffffffffffffffffffffffffffffffffffff168273ffffffffffffffffffffffffffffffffffffffff161415610820576040517f08c379a000000000000000000000000000000000000000000000000000000000815260040161081790612662565b60405180910390fd5b600360008373ffffffffffffffffffffffffffffffffffffffff1673ffffffffffffffffffffffffffffffffffffffff168152602001908152602001600020549050919050565b61086f610e8a565b73ffffffffffffffffffffffffffffffffffffffff1661088d6108ef565b73ffffffffffffffffffffffffffffffffffffffff16146108e3576040517f08c379a00000000000000000000000000000000000000000000000000000000081526004016108da906126ce565b60405180910390fd5b6108ed6000611290565b565b6000600760009054906101000a900473ffffffffffffffffffffffffffffffffffffffff16905090565b606060018054610928906122e4565b80601f0160208091040260200160405190810160405280929190818152602001828054610954906122e4565b80156109a15780601f10610976576101008083540402835291602001916109a1565b820191906000526020600020905b81548152906001019060200180831161098457829003601f168201915b5050505050905090565b6109bd6109b6610e8a565b8383611356565b5050565b6109d26109cc610e8a565b83610f4b565b610a11576040517f08c379a0000000000000000000000000000000000000000000000000000000008152600401610a089061253e565b60405180910390fd5b610a1d848484846114c3565b50505050565b6060610a2e82610e1e565b610a6d576040517f08c379a0000000000000000000000000000000000000000000000000000000008152600401610a6490612760565b60405180910390fd5b6000600660008481526020019081526020016000208054610a8d906122e4565b80601f0160208091040260200160405190810160405280929190818152602001828054610ab9906122e4565b8015610b065780601f10610adb57610100808354040283529160200191610b06565b820191906000526020600020905b815481529060010190602001808311610ae957829003601f168201915b505050505090506000610b1761151f565b9050600081511415610b2d578192505050610b70565b600082511115610b62578082604051602001610b4a9291906127bc565b60405160208183030381529060405292505050610b70565b610b6b84611536565b925050505b919050565b6000600560008473ffffffffffffffffffffffffffffffffffffffff1673ffffffffffffffffffffffffffffffffffffffff16815260200190815260200160002060008373ffffffffffffffffffffffffffffffffffffffff1673ffffffffffffffffffffffffffffffffffffffff16815260200190815260200160002060009054906101000a900460ff16905092915050565b610c11610e8a565b73ffffffffffffffffffffffffffffffffffffffff16610c2f6108ef565b73ffffffffffffffffffffffffffffffffffffffff1614610c85576040517f08c379a0000000000000000000000000000000000000000000000000000000008152600401610c7c906126ce565b60405180910390fd5b600073ffffffffffffffffffffffffffffffffffffffff168173ffffffffffffffffffffffffffffffffffffffff161415610cf5576040517f08c379a0000000000000000000000000000000000000000000000000000000008152600401610cec90612852565b60405180910390fd5b610cfe81611290565b50565b6000610d0b610e8a565b73ffffffffffffffffffffffffffffffffffffffff16610d296108ef565b73ffffffffffffffffffffffffffffffffffffffff1614610d7f576040517f08c379a0000000000000000000000000000000000000000000000000000000008152600401610d76906126ce565b60405180910390fd5b610d8960086115dd565b6000610d9560086115f3565b9050610da13382611601565b610dab81846117db565b80915050919050565b60007f01ffc9a7000000000000000000000000000000000000000000000000000000007bffffffffffffffffffffffffffffffffffffffffffffffffffffffff1916827bffffffffffffffffffffffffffffffffffffffffffffffffffffffff1916149050919050565b60008073ffffffffffffffffffffffffffffffffffffffff166002600084815260200190815260200160002060009054906101000a900473ffffffffffffffffffffffffffffffffffffffff1673ffffffffffffffffffffffffffffffffffffffff1614159050919050565b600033905090565b816004600083815260200190815260200160002060006101000a81548173ffffffffffffffffffffffffffffffffffffffff021916908373ffffffffffffffffffffffffffffffffffffffff160217905550808273ffffffffffffffffffffffffffffffffffffffff16610f05836106fd565b73ffffffffffffffffffffffffffffffffffffffff167f8c5be1e5ebec7d5bd14f71427d1e84f3dd0314c0f7b2291e5b200ac8c7c3b92560405160405180910390a45050565b6000610f5682610e1e565b610f95576040517f08c379a0000000000000000000000000000000000000000000000000000000008152600401610f8c906128e4565b60405180910390fd5b6000610fa0836106fd565b90508073ffffffffffffffffffffffffffffffffffffffff168473ffffffffffffffffffffffffffffffffffffffff16148061100f57508373ffffffffffffffffffffffffffffffffffffffff16610ff7846104e0565b73ffffffffffffffffffffffffffffffffffffffff16145b80611020575061101f8185610b75565b5b91505092915050565b8273ffffffffffffffffffffffffffffffffffffffff16611049826106fd565b73ffffffffffffffffffffffffffffffffffffffff161461109f576040517f08c379a000000000000000000000000000000000000000000000000000000000815260040161109690612976565b60405180910390fd5b600073ffffffffffffffffffffffffffffffffffffffff168273ffffffffffffffffffffffffffffffffffffffff16141561110f576040517f08c379a000000000000000000000000000000000000000000000000000000000815260040161110690612a08565b60405180910390fd5b61111a83838361184f565b611125600082610e92565b6001600360008573ffffffffffffffffffffffffffffffffffffffff1673ffffffffffffffffffffffffffffffffffffffff16815260200190815260200160002060008282546111759190612a57565b925050819055506001600360008473ffffffffffffffffffffffffffffffffffffffff1673ffffffffffffffffffffffffffffffffffffffff16815260200190815260200160002060008282546111cc9190612a8b565b92505081905550816002600083815260200190815260200160002060006101000a81548173ffffffffffffffffffffffffffffffffffffffff021916908373ffffffffffffffffffffffffffffffffffffffff160217905550808273ffffffffffffffffffffffffffffffffffffffff168473ffffffffffffffffffffffffffffffffffffffff167fddf252ad1be2c89b69c2b068fc378daa952ba7f163c4a11628f55a4df523b3ef60405160405180910390a461128b838383611854565b505050565b6000600760009054906101000a900473ffffffffffffffffffffffffffffffffffffffff16905081600760006101000a81548173ffffffffffffffffffffffffffffffffffffffff021916908373ffffffffffffffffffffffffffffffffffffffff1602179055508173ffffffffffffffffffffffffffffffffffffffff168173ffffffffffffffffffffffffffffffffffffffff167f8be0079c531659141344cd1fd0a4f28419497f9722a3daafe3b4186f6b6457e060405160405180910390a35050565b8173ffffffffffffffffffffffffffffffffffffffff168373ffffffffffffffffffffffffffffffffffffffff1614156113c5576040517f08c379a00000000000000000000000000000000000000000000000000000000081526004016113bc90612b2d565b60405180910390fd5b80600560008573ffffffffffffffffffffffffffffffffffffffff1673ffffffffffffffffffffffffffffffffffffffff16815260200190815260200160002060008473ffffffffffffffffffffffffffffffffffffffff1673ffffffffffffffffffffffffffffffffffffffff16815260200190815260200160002060006101000a81548160ff0219169083151502179055508173ffffffffffffffffffffffffffffffffffffffff168373ffffffffffffffffffffffffffffffffffffffff167f17307eab39ab6107e8899845ad3d59bd9653f200f220920489ca2b5937696c31836040516114b69190611cbc565b60405180910390a3505050565b6114ce848484611029565b6114da84848484611859565b611519576040517f08c379a000000000000000000000000000000000000000000000000000000000815260040161151090612bbf565b60405180910390fd5b50505050565b606060405180602001604052806000815250905090565b606061154182610e1e565b611580576040517f08c379a000000000000000000000000000000000000000000000000000000000815260040161157790612c51565b60405180910390fd5b600061158a61151f565b905060008151116115aa57604051806020016040528060008152506115d5565b806115b4846119e1565b6040516020016115c59291906127bc565b6040516020818303038152906040525b915050919050565b6001816000016000828254019250508190555050565b600081600001549050919050565b600073ffffffffffffffffffffffffffffffffffffffff168273ffffffffffffffffffffffffffffffffffffffff161415611671576040517f08c379a000000000000000000000000000000000000000000000000000000000815260040161166890612cbd565b60405180910390fd5b61167a81610e1e565b156116ba576040517f08c379a00000000000000000000000000000000000000000000000000000000081526004016116b190612d29565b60405180910390fd5b6116c66000838361184f565b6001600360008473ffffffffffffffffffffffffffffffffffffffff1673ffffffffffffffffffffffffffffffffffffffff16815260200190815260200160002060008282546117169190612a8b565b92505081905550816002600083815260200190815260200160002060006101000a81548173ffffffffffffffffffffffffffffffffffffffff021916908373ffffffffffffffffffffffffffffffffffffffff160217905550808273ffffffffffffffffffffffffffffffffffffffff16600073ffffffffffffffffffffffffffffffffffffffff167fddf252ad1be2c89b69c2b068fc378daa952ba7f163c4a11628f55a4df523b3ef60405160405180910390a46117d760008383611854565b5050565b6117e482610e1e565b611823576040517f08c379a000000000000000000000000000000000000000000000000000000000815260040161181a90612dbb565b60405180910390fd5b8060066000848152602001908152602001600020908051906020019061184a929190611b65565b505050565b505050565b505050565b600061187a8473ffffffffffffffffffffffffffffffffffffffff16611b42565b156119d4578373ffffffffffffffffffffffffffffffffffffffff1663150b7a026118a3610e8a565b8786866040518563ffffffff1660e01b81526004016118c59493929190612e30565b6020604051808303816000875af192505050801561190157506040513d601f19601f820116820180604052508101906118fe9190612e91565b60015b611984573d8060008114611931576040519150601f19603f3d011682016040523d82523d6000602084013e611936565b606091505b5060008151141561197c576040517f08c379a000000000000000000000000000000000000000000000000000000000815260040161197390612bbf565b60405180910390fd5b805181602001fd5b63150b7a0260e01b7bffffffffffffffffffffffffffffffffffffffffffffffffffffffff1916817bffffffffffffffffffffffffffffffffffffffffffffffffffffffff1916149150506119d9565b600190505b949350505050565b60606000821415611a29576040518060400160405280600181526020017f30000000000000000000000000000000000000000000000000000000000000008152509050611b3d565b600082905060005b60008214611a5b578080611a4490612ebe565b915050600a82611a549190612f36565b9150611a31565b60008167ffffffffffffffff811115611a7757611a76611fdd565b5b6040519080825280601f01601f191660200182016040528015611aa95781602001600182028036833780820191505090505b5090505b60008514611b3657600182611ac29190612a57565b9150600a85611ad19190612f67565b6030611add9190612a8b565b60f81b818381518110611af357611af2612f98565b5b60200101907effffffffffffffffffffffffffffffffffffffffffffffffffffffffffffff1916908160001a905350600a85611b2f9190612f36565b9450611aad565b8093505050505b919050565b6000808273ffffffffffffffffffffffffffffffffffffffff163b119050919050565b828054611b71906122e4565b90600052602060002090601f016020900481019282611b935760008555611bda565b82601f10611bac57805160ff1916838001178555611bda565b82800160010185558215611bda579182015b82811115611bd9578251825591602001919060010190611bbe565b5b509050611be79190611beb565b5090565b5b80821115611c04576000816000905550600101611bec565b5090565b6000604051905090565b600080fd5b600080fd5b60007fffffffff0000000000000000000000000000000000000000000000000000000082169050919050565b611c5181611c1c565b8114611c5c57600080fd5b50565b600081359050611c6e81611c48565b92915050565b600060208284031215611c8a57611c89611c12565b5b6000611c9884828501611c5f565b91505092915050565b60008115159050919050565b611cb681611ca1565b82525050565b6000602082019050611cd16000830184611cad565b92915050565b600081519050919050565b600082825260208201905092915050565b60005b83811015611d11578082015181840152602081019050611cf6565b83811115611d20576000848401525b50505050565b6000601f19601f8301169050919050565b6000611d4282611cd7565b611d4c8185611ce2565b9350611d5c818560208601611cf3565b611d6581611d26565b840191505092915050565b60006020820190508181036000830152611d8a8184611d37565b905092915050565b6000819050919050565b611da581611d92565b8114611db057600080fd5b50565b600081359050611dc281611d9c565b92915050565b600060208284031215611dde57611ddd611c12565b5b6000611dec84828501611db3565b91505092915050565b600073ffffffffffffffffffffffffffffffffffffffff82169050919050565b6000611e2082611df5565b9050919050565b611e3081611e15565b82525050565b6000602082019050611e4b6000830184611e27565b92915050565b611e5a81611e15565b8114611e6557600080fd5b50565b600081359050611e7781611e51565b92915050565b60008060408385031215611e9457611e93611c12565b5b6000611ea285828601611e68565b9250506020611eb385828601611db3565b9150509250929050565b600080600060608486031215611ed657611ed5611c12565b5b6000611ee486828701611e68565b9350506020611ef586828701611e68565b9250506040611f0686828701611db3565b9150509250925092565b600060208284031215611f2657611f25611c12565b5b6000611f3484828501611e68565b91505092915050565b611f4681611d92565b82525050565b6000602082019050611f616000830184611f3d565b92915050565b611f7081611ca1565b8114611f7b57600080fd5b50565b600081359050611f8d81611f67565b92915050565b60008060408385031215611faa57611fa9611c12565b5b6000611fb885828601611e68565b9250506020611fc985828601611f7e565b9150509250929050565b600080fd5b600080fd5b7f4e487b7100000000000000000000000000000000000000000000000000000000600052604160045260246000fd5b61201582611d26565b810181811067ffffffffffffffff8211171561203457612033611fdd565b5b80604052505050565b6000612047611c08565b9050612053828261200c565b919050565b600067ffffffffffffffff82111561207357612072611fdd565b5b61207c82611d26565b9050602081019050919050565b82818337600083830152505050565b60006120ab6120a684612058565b61203d565b9050828152602081018484840111156120c7576120c6611fd8565b5b6120d2848285612089565b509392505050565b600082601f8301126120ef576120ee611fd3565b5b81356120ff848260208601612098565b91505092915050565b6000806000806080858703121561212257612121611c12565b5b600061213087828801611e68565b945050602061214187828801611e68565b935050604061215287828801611db3565b925050606085013567ffffffffffffffff81111561217357612172611c17565b5b61217f878288016120da565b91505092959194509250565b600080604083850312156121a2576121a1611c12565b5b60006121b085828601611e68565b92505060206121c185828601611e68565b9150509250929050565b600067ffffffffffffffff8211156121e6576121e5611fdd565b5b6121ef82611d26565b9050602081019050919050565b600061220f61220a846121cb565b61203d565b90508281526020810184848401111561222b5761222a611fd8565b5b612236848285612089565b509392505050565b600082601f83011261225357612252611fd3565b5b81356122638482602086016121fc565b91505092915050565b60006020828403121561228257612281611c12565b5b600082013567ffffffffffffffff8111156122a05761229f611c17565b5b6122ac8482850161223e565b91505092915050565b7f4e487b7100000000000000000000000000000000000000000000000000000000600052602260045260246000fd5b600060028204905060018216806122fc57607f821691505b602082108114156123105761230f6122b5565b5b50919050565b7f4552433732313a20617070726f76656420717565727920666f72206e6f6e657860008201527f697374656e7420746f6b656e0000000000000000000000000000000000000000602082015250565b6000612372602c83611ce2565b915061237d82612316565b604082019050919050565b600060208201905081810360008301526123a181612365565b9050919050565b7f4552433732313a20617070726f76616c20746f2063757272656e74206f776e6560008201527f7200000000000000000000000000000000000000000000000000000000000000602082015250565b6000612404602183611ce2565b915061240f826123a8565b604082019050919050565b60006020820190508181036000830152612433816123f7565b9050919050565b7f4552433732313a20617070726f76652063616c6c6572206973206e6f74206f7760008201527f6e6572206e6f7220617070726f76656420666f7220616c6c0000000000000000602082015250565b6000612496603883611ce2565b91506124a18261243a565b604082019050919050565b600060208201905081810360008301526124c581612489565b9050919050565b7f4552433732313a207472616e736665722063616c6c6572206973206e6f74206f60008201527f776e6572206e6f7220617070726f766564000000000000000000000000000000602082015250565b6000612528603183611ce2565b9150612533826124cc565b604082019050919050565b600060208201905081810360008301526125578161251b565b9050919050565b7f4552433732313a206f776e657220717565727920666f72206e6f6e657869737460008201527f656e7420746f6b656e0000000000000000000000000000000000000000000000602082015250565b60006125ba602983611ce2565b91506125c58261255e565b604082019050919050565b600060208201905081810360008301526125e9816125ad565b9050919050565b7f4552433732313a2062616c616e636520717565727920666f7220746865207a6560008201527f726f206164647265737300000000000000000000000000000000000000000000602082015250565b600061264c602a83611ce2565b9150612657826125f0565b604082019050919050565b6000602082019050818103600083015261267b8161263f565b9050919050565b7f4f776e61626c653a2063616c6c6572206973206e6f7420746865206f776e6572600082015250565b60006126b8602083611ce2565b91506126c382612682565b602082019050919050565b600060208201905081810360008301526126e7816126ab565b9050919050565b7f45524337323155524953746f726167653a2055524920717565727920666f722060008201527f6e6f6e6578697374656e7420746f6b656e000000000000000000000000000000602082015250565b600061274a603183611ce2565b9150612755826126ee565b604082019050919050565b600060208201905081810360008301526127798161273d565b9050919050565b600081905092915050565b600061279682611cd7565b6127a08185612780565b93506127b0818560208601611cf3565b80840191505092915050565b60006127c8828561278b565b91506127d4828461278b565b91508190509392505050565b7f4f776e61626c653a206e6577206f776e657220697320746865207a65726f206160008201527f6464726573730000000000000000000000000000000000000000000000000000602082015250565b600061283c602683611ce2565b9150612847826127e0565b604082019050919050565b6000602082019050818103600083015261286b8161282f565b9050919050565b7f4552433732313a206f70657261746f7220717565727920666f72206e6f6e657860008201527f697374656e7420746f6b656e0000000000000000000000000000000000000000602082015250565b60006128ce602c83611ce2565b91506128d982612872565b604082019050919050565b600060208201905081810360008301526128fd816128c1565b9050919050565b7f4552433732313a207472616e736665722066726f6d20696e636f72726563742060008201527f6f776e6572000000000000000000000000000000000000000000000000000000602082015250565b6000612960602583611ce2565b915061296b82612904565b604082019050919050565b6000602082019050818103600083015261298f81612953565b9050919050565b7f4552433732313a207472616e7366657220746f20746865207a65726f2061646460008201527f7265737300000000000000000000000000000000000000000000000000000000602082015250565b60006129f2602483611ce2565b91506129fd82612996565b604082019050919050565b60006020820190508181036000830152612a21816129e5565b9050919050565b7f4e487b7100000000000000000000000000000000000000000000000000000000600052601160045260246000fd5b6000612a6282611d92565b9150612a6d83611d92565b925082821015612a8057612a7f612a28565b5b828203905092915050565b6000612a9682611d92565b9150612aa183611d92565b9250827fffffffffffffffffffffffffffffffffffffffffffffffffffffffffffffffff03821115612ad657612ad5612a28565b5b828201905092915050565b7f4552433732313a20617070726f766520746f2063616c6c657200000000000000600082015250565b6000612b17601983611ce2565b9150612b2282612ae1565b602082019050919050565b60006020820190508181036000830152612b4681612b0a565b9050919050565b7f4552433732313a207472616e7366657220746f206e6f6e20455243373231526560008201527f63656976657220696d706c656d656e7465720000000000000000000000000000602082015250565b6000612ba9603283611ce2565b9150612bb482612b4d565b604082019050919050565b60006020820190508181036000830152612bd881612b9c565b9050919050565b7f4552433732314d657461646174613a2055524920717565727920666f72206e6f60008201527f6e6578697374656e7420746f6b656e0000000000000000000000000000000000602082015250565b6000612c3b602f83611ce2565b9150612c4682612bdf565b604082019050919050565b60006020820190508181036000830152612c6a81612c2e565b9050919050565b7f4552433732313a206d696e7420746f20746865207a65726f2061646472657373600082015250565b6000612ca7602083611ce2565b9150612cb282612c71565b602082019050919050565b60006020820190508181036000830152612cd681612c9a565b9050919050565b7f4552433732313a20746f6b656e20616c7265616479206d696e74656400000000600082015250565b6000612d13601c83611ce2565b9150612d1e82612cdd565b602082019050919050565b60006020820190508181036000830152612d4281612d06565b9050919050565b7f45524337323155524953746f726167653a2055524920736574206f66206e6f6e60008201527f6578697374656e7420746f6b656e000000000000000000000000000000000000602082015250565b6000612da5602e83611ce2565b9150612db082612d49565b604082019050919050565b60006020820190508181036000830152612dd481612d98565b9050919050565b600081519050919050565b600082825260208201905092915050565b6000612e0282612ddb565b612e0c8185612de6565b9350612e1c818560208601611cf3565b612e2581611d26565b840191505092915050565b6000608082019050612e456000830187611e27565b612e526020830186611e27565b612e5f6040830185611f3d565b8181036060830152612e718184612df7565b905095945050505050565b600081519050612e8b81611c48565b92915050565b600060208284031215612ea757612ea6611c12565b5b6000612eb584828501612e7c565b91505092915050565b6000612ec982611d92565b91507fffffffffffffffffffffffffffffffffffffffffffffffffffffffffffffffff821415612efc57612efb612a28565b5b600182019050919050565b7f4e487b7100000000000000000000000000000000000000000000000000000000600052601260045260246000fd5b6000612f4182611d92565b9150612f4c83611d92565b925082612f5c57612f5b612f07565b5b828204905092915050565b6000612f7282611d92565b9150612f7d83611d92565b925082612f8d57612f8c612f07565b5b828206905092915050565b7f4e487b7100000000000000000000000000000000000000000000000000000000600052603260045260246000fdfea264697066735822122098d2246159b6430ab82ef116ed90187642a9e9b231e6e2ed5b3f0c5d470a7df664736f6c634300080c0033",
  "immutableReferences": {},
  "source": "// SPDX-License-Identifier: MIT\npragma solidity ^0.8.12;\n\nimport \"@openzeppelin/contracts/token/ERC721/ERC721.sol\";\nimport \"@openzeppelin/contracts/utils/Counters.sol\";\nimport \"@openzeppelin/contracts/access/Ownable.sol\";\nimport \"@openzeppelin/contracts/token/ERC721/extensions/ERC721URIStorage.sol\";\n\ncontract mintNFT721 is ERC721URIStorage,Ownable{\n\nusing Counters for Counters.Counter;\nCounters.Counter private tokenId;\n\nconstructor() ERC721(\"MyNFT721\",\"NFT721\"){\n\n}\nfunction mintNFT(string memory tokenURI) public onlyOwner returns (uint256){\n  tokenId.increment();\n  uint256 newId = tokenId.current();\n  _mint(msg.sender, newId);\n  _setTokenURI(newId, tokenURI);\n  return newId;\n\n}\n\n}",
  "sourcePath": "/home/hp/Rajeeb/NFT/ERC721/contracts/mintContract.sol",
  "compiler": {
    "name": "solc",
    "version": "0.8.12+commit.f00d7308.Emscripten.clang"
  },
  "schemaVersion": "3.4.6",
  "updatedAt": "2022-03-12T09:53:58.931Z",
  "devdoc": {
    "kind": "dev",
    "methods": {
      "approve(address,uint256)": {
        "details": "See {IERC721-approve}."
      },
      "balanceOf(address)": {
        "details": "See {IERC721-balanceOf}."
      },
      "getApproved(uint256)": {
        "details": "See {IERC721-getApproved}."
      },
      "isApprovedForAll(address,address)": {
        "details": "See {IERC721-isApprovedForAll}."
      },
      "name()": {
        "details": "See {IERC721Metadata-name}."
      },
      "owner()": {
        "details": "Returns the address of the current owner."
      },
      "ownerOf(uint256)": {
        "details": "See {IERC721-ownerOf}."
      },
      "renounceOwnership()": {
        "details": "Leaves the contract without owner. It will not be possible to call `onlyOwner` functions anymore. Can only be called by the current owner. NOTE: Renouncing ownership will leave the contract without an owner, thereby removing any functionality that is only available to the owner."
      },
      "safeTransferFrom(address,address,uint256)": {
        "details": "See {IERC721-safeTransferFrom}."
      },
      "safeTransferFrom(address,address,uint256,bytes)": {
        "details": "See {IERC721-safeTransferFrom}."
      },
      "setApprovalForAll(address,bool)": {
        "details": "See {IERC721-setApprovalForAll}."
      },
      "supportsInterface(bytes4)": {
        "details": "See {IERC165-supportsInterface}."
      },
      "symbol()": {
        "details": "See {IERC721Metadata-symbol}."
      },
      "tokenURI(uint256)": {
        "details": "See {IERC721Metadata-tokenURI}."
      },
      "transferFrom(address,address,uint256)": {
        "details": "See {IERC721-transferFrom}."
      },
      "transferOwnership(address)": {
        "details": "Transfers ownership of the contract to a new account (`newOwner`). Can only be called by the current owner."
      }
    },
    "version": 1
  },
  "userdoc": {
    "kind": "user",
    "methods": {},
    "version": 1
  }
}